:100000000C943A000C9423010C9423010C942301CA
:100010000C9423010C9423010C9423010C942301D0
:100020000C9423010C9423010C9423010C942301C0
:100030000C9423010C9423010C9423010C942301B0
:100040000C9423010C9423010C9423010C942301A0
:100050000C9423010C9423010C9423010C94230190
:100060000C9423010C94230101000110000254019F
:100070001001118011241FBECFEFD8E0DEBFCDBF2D
:10008000E8E6F0E040E017C0B591A59135912591E3
:10009000059107FD0CC095918591EF01F92FE82F8F
:1000A00005900D92A217B307D9F7FE0104C01D9267
:1000B000A217B307E1F7E437F40731F70E949E0077
:0800C0000C940B01F894FFCF32
:1000C8009091100190FF16C029989DEC899F912D61
:1000D8001124969596959695990F292F220F220F00
:1000E800920F891BE82FF0E0E050FF4F80818BB919
:1000F800289A1AC028989DEC899FE12D1124E6952D
:10010800E695E695E99F812D112486958695869535
:10011800880F982F990F990F890FE81BF0E0E0508E
:10012800FF4F80818BB9299A809110018F5F80934E
:040138001001089515
:10013C000E941E0180E00E9464008FE39FE1019702
:10014C00F1F700C00000C12CD12C7601C394C0E0A3
:10015C000F2EFAEF8F2E912CA12CB12CF02D8C2F71
:10016C000E9464008FE39FE10197F1F700C000004B
:10017C009FEFC91AD90AE90AF90AC701B601A50104
:10018C0094010E94F400672B682B692B41F7CF5F19
:08019C00C43628F3C0E0E3CFF4
:1001A400A1E21A2EAA1BBB1BFD010DC0AA1FBB1F77
:1001B400EE1FFF1FA217B307E407F50720F0A21BE9
:1001C400B30BE40BF50B661F771F881F991F1A9456
:1001D40069F760957095809590959B01AC01BD0180
:0401E400CF010895AA
:1001E800052E97FB1EF400940E94160157FD07D0B8
:1001F8000E94D20007FC03D04EF40C9416015095CF
:0E0208004095309521953F4F4F4F5F4F089521
:10021600EC010E9428010E942701CE010E942901BB
:06022600CE010E9425013B
:10022C0090958095709561957F4F8F4F9F4F089556
:0A023C008FEF8AB9209A219A0895E5
:040246000C94000014
:04024A000E946200AC
:02024E00089511
:0202500008950F
:0202520008950D
:100254003F065B4F666D7D077F6F777C395E7971F2
:00000001FF
